:0A1E4C004E6F742072656164790026
:041E6300021E00005B
:101950007522FF75231E75244C121DB2121DC7126D
:1019600016A0E4FF121D38E4FF121C10E4FDFF1264
:101970001D6A7D307F01121D6A7D127F02121D6A71
:101980007D037F03121D6A7D197F04121D6A7D0A83
:101990007F05121D6AE4FD7F06121D6AE51F451EC4
:1019A00060FAE4F51EF51F1218CD121849121AC17B
:1019B0008F288E278D268C251213C38B228A23898C
:0D19C000247548087D01E4FF121A3280CF23
:101DB200759850438920758DFD858D8BD28ED2AF5B
:051DC200C2ACD2992221
:101DC700438901758A67758CFCD28CD2A9D2AFE49E
:051DD700F51CF51D22C2
:03000B00021BB61F
:101BB600C0E0C0D075D000C006758A67758CFCE59C
:101BC6001D151DAE1C7002151C4E700B751C037581
:0E1BD6001DE8F51E751F01D006D0D0D0E032FC
:10000E000000000000000000002F000000000700AC
:10001E00070000147F147F1400242A7F2A12006226
:10002E0064081323003649552250000005030000D2
:10003E0000001C224100000041221C000014083E5A
:10004E0008140008083E0808000000A06000000820
:10005E000808080800006060000000201008040274
:10006E00003E5149453E0000427F40000042615132
:10007E004946002141454B31001814127F100027CC
:10008E0045454539003C4A4949300001710905038F
:10009E0000364949493600064949291E00003636C0
:1000AE000000000056360000000814224100001423
:1000BE001414141400004122140800020151090600
:1000CE0000324959513E007C1211127C007F494981
:1000DE004936003E41414122007F4141221C007FB2
:1000EE0049494941007F09090901003E4149497AC0
:1000FE00007F0808087F0000417F4100002040413A
:10010E003F01007F08142241007F40404040007FA5
:10011E00020C027F007F0408107F003E4141413EE9
:10012E00007F09090906003E4151215E007F091931
:10013E0029460046494949310001017F0101003F2E
:10014E004040403F001F2040201F003F4038403FAE
:10015E000063140814630007087008070061514912
:10016E00454300007F41410000552A552A550000A5
:10017E0041417F0000040201020400404040404023
:10018E00000001020400002054545478007F4844BB
:10019E00443800384444442000384444487F0038F2
:1001AE005454541800087E0901020018A4A4A47C1B
:1001BE00007F080404780000447D400000408084E5
:1001CE007D00007F102844000000417F4000007C2D
:1001DE0004180478007C0804047800384444443839
:1001EE0000FC242424180018242418FC007C080485
:1001FE00040800485454542000043F444020003C5E
:10020E004040207C001C2040201C003C4030403CE4
:10021E00004428102844001CA0A0A07C0044645474
:10022E004C441414141414140000000000000000B8
:10023E000000000000000000000000F800000000B8
:10024E00000000333000000000100C06100C0600F9
:10025E00000000000000000040C07840C078400060
:10026E00043F04043F040400007088FC08300000C2
:10027E00001820FF211E0000F008F000E01800001A
:10028E0000211C031E211E0000F0088870000000D3
:10029E001E2123241927211010160E000000000025
:1002AE000000000000000000000000E01804020042
:1002BE00000000071820400000020418E0000000B3
:1002CE000040201807000000404080F080404000B1
:1002DE000202010F01020200000000F00000000007
:1002EE000101011F010101000000000000000000DB
:1002FE0080B0700000000000000000000000000050
:10030E0000010101010101010000000000000000D8
:10031E000030300000000000000000008060180473
:10032E00006018060100000000E010080810E00050
:10033E00000F102020100F00001010F80000000019
:10034E000020203F20200000007008080888700060
:10035E0000302824222130000030088888483000E0
:10036E000018202020110E000000C02010F8000000
:10037E0000070424243F240000F808888808080099
:10038E000019212020110E0000E0108888180000AE
:10039E00000F112020110E0000380808C838080080
:1003AE000000003F00000000007088080888700000
:1003BE00001C222121221C0000E010080810E00081
:1003CE000000312222110F00000000C0C00000000A
:1003DE00000000303000000000000080000000002F
:1003EE000000806000000000000080402010080027
:1003FE0000010204081020004040404040404000F0
:10040E0004040404040404000008102040800000CA
:10041E000020100804020100007048080808F000CF
:10042E000000003036010000C030C828E810E0009F
:10043E000718272423140B000000C038E00000002A
:10044E00203C23020227382008F888888870000094
:10045E00203F202020110E00C03008080808380068
:10046E00071820202010080008F808080810E000DF
:10047E00203F202020100F0008F88888E808100080
:10048E00203F20202320180008F88888E808100054
:10049E00203F200003000000C0300808083800008C
:1004AE0007182020221E020008F808000008F8088D
:1004BE00203F210101213F20000808F80808000014
:1004CE000020203F2020000000000808F808080047
:1004DE00C08080807F00000008F888C028180800BF
:1004EE00203F20012638200008F8080000000000F8
:1004FE00203F20202020300008F8F800F8F80800EF
:10050E00203F003F003F200008F830C00008F808E8
:10051E00203F200007183F00E01008080810E000F8
:10052E000F10202020100F0008F808080808F0000F
:10053E00203F210101010000E01008080810E00032
:10054E000F18242438504F0008F8888888887000C7
:10055E00203F2000030C3020007088080808380067
:10056E000038202121221C00180808F8080818005D
:10057E000000203F2000000008F808000008F808DE
:10058E00001F202020201F000878880000C838088F
:10059E00000007380E010000F80800F80008F80007
:1005AE00033C0700073C03000818688080681808A1
:1005BE0020302C03032C30200838C800C83808001F
:1005CE000000203F2000000010080808C83808006E
:1005DE002038262120201800000000FE0202020012
:1005EE000000007F40404000000C30C000000000C2
:1005FE00000000010638C00000020202FE000000EA
:10060E00004040407F00000000000402020204008F
:10061E0000000000000000000000000000000000CC
:10062E0080808080808080800002020400000000B4
:10063E0000000000000000000000808080800000AC
:10064E000019242222223F2008F80080800000009A
:10065E00003F112020110E0000000080808000005D
:10066E00000E112020201100000000808088F8006C
:10067E00000E112020103F2000008080808000009E
:10068E00001F222222221300008080F08888881802
:10069E000020203F2020000000008080808080000D
:1006AE00006B94949493600008F8008080800000A2
:1006BE00203F210000203F2000809898000000007D
:1006CE000020203F202000000000008098980000AD
:1006DE0000C08080807F000008F8000080808000CD
:1006EE00203F24022D302000000808F800000000F2
:1006FE000020203F202000008080808080808000AD
:10070E00203F20003F20003F80800080808000003E
:10071E00203F210000203F200000808080800000CC
:10072E00001F202020201F008080008080000000FD
:10073E0080FFA12020110E0000000080808080002C
:10074E00000E112020A0FF8080808000808080001D
:10075E0020203F212000010000008080808080004A
:10076E000033242424241900008080E080800000BF
:10077E000000001F2020000080800000008080000C
:10078E00001F202020103F2080808000008080806D
:10079E0000010E30080601008080008000808080FD
:1007AE000F300C030C300F00008080008080800022
:1007BE000020312E0E31200080808000008080804D
:1007CE0080818E70180601000080808080808000FD
:1007DE000021302C2221300000000000807C02021B
:1007EE0000000000003F404000000000FF0000003D
:1007FE0000000000FF0000000002027C80000000EC
:10080E000040403F00000000000601010202040407
:08081E000000000000000000D2
:101D1E00EF4E60157D087C07ED1DAA0470011C4A6C
:091D2E0070F6EF1F70EA1E80E759
:011D37002289
:101D38008F2DE52D7006FD7FA6121B8EE52DB401B3
:091D480007E4FD7FA7121B8E22A7
:101C10008F2DE52D700DFD7FC8121B8EE4FD7FA179
:101C2000121B8EE52DB4010EE4FD7FC0121B8EE465
:071C3000FD7FA0121B8E22B4
:0A1B8400121B8EE4FF121B8E7F106F
:101B8E00ED6004D2938002C293C294E4FEC290EF41
:101B9E0030E704D2918002C291D290EF25E0FF0E81
:071BAE00BE08EAD294D293B5
:011BB500220D
:101CE300AC07ED24B0FFE4FD121B8EEC54F0C4549A
:0E1CF3000F4410FF121B8EEC540FFF021B8ECD
:101DEF00E4FD7F8D121B8E7F14121B8E7FAF021BA3
:011DFF008E55
:0C1E1D00E4FD7F8D121B897FAE021B8E3E
:101D0100E4FCEC24B0FFE4FD121B84E4FB7D01E460
:0C1D1100FF121B8E0BBB80F50CBC08E61B
:011D1D0022A3
:061522008F4A8D4BA90366
:10152800E4F54EE54DC313F54FE4FBFAE54DB40879
:1015380008755000755106802CE54D131313541F80
:10154800FF7E00E54D54077C0060047D0180027D2C
:1015580000ED2FFFEC3EFEE54DC313FD7C00120E9F
:10156800738E508F51E924E0F54EAD4BAF4A121CF3
:10157800E3E4FAFBC3EB9551EA95505062E54FFD61
:101588007C00AF03AE02120E85ED4C700FE54D6482
:10159800086009AD4B054BAF4A121CE3E54DB40892
:1015A8001075F006E54EA4240EF582E5F0340080AF
:1015B80013E54DB4102975F010E54EA42436F582D4
:1015C800E5F03402F583E5822BF582E5833AF5836D
:0F15D800E493FF7D01121B8E0BBB00010A80956F
:0115E70022E1
:041D83008F61A905BE
:101D87007F017E00AD0119ED6009AD617C00120E87
:031D97007380F165
:011D9A002226
:0817C0008F088D098A0A8B0BCA
:1017C800E4F510F511E50DB40803751002E4F50E03
:1017D800E50EC3950C5069C3E50C950E14FD7F0A00
:1017E800121D83AC0AAD0BCFCDCFCECCCE120E8559
:1017F8007C007D0A120E858D0FE5117025E50C140D
:10180800FFE50EC39F501BE50F7014E50DC31325AC
:1018180010850EF0A42508FF850D4D7B20801875D6
:101828001101E50DC3132510850EF0A42508FFE569
:101838000F2430FB850D4DAD09121522050E809041
:01184800227D
:0A1A32008F438D448B458A46894797
:101A3C00E4F549AB45AA46A947854982758300124E
:101A4C000E34602AAF4905498F82758300120E341B
:101A5C00FB85484DAD44AF43121522E548B408044C
:0E1A6C0074068004E548C3132543F54380C586
:011A7A002249
:0619CD008F128D138B1434
:1019D300E4F519F51AE515131313541FFFE5155410
:1019E3000760047E0180027E00EF2EF515E4F51BEF
:1019F300E51BC395155037E51B2513FDAF12121CCC
:101A0300E3E4FCECC395145021AB16AA17A91805FF
:101A13001AE51AAE197002051914F5828E83120E97
:0E1A230034FF7D01121B8E0C80D9051B80C282
:011A31002292
:1016A000C2927FC87E00121D1ED292E4FD7FAE1250
:1016B0001B847F40121B8E7F81121B8E7FCF121BDB
:1016C0008E7FA1121B8E7FC8121B8E7FA6121B8ECF
:1016D0007FA8121B8E7F3F121B8E7FD3121B8EE4BE
:1016E000FF121B8E7FD5121B8E7F80121B8E7FD91F
:1016F000121B8E7FF1121B8E7FDA121B8E7F12124D
:101700001B8E7FDB121B8E7F40121B8E7F20121BD5
:101710008E7F02121B8E7F8D121B8E7F14121B8EEA
:101720007FA4121B8E7FA6121B8E121D01E4FD7F6B
:04173000AF021B8E5B
:071E56000000000000000085
:101D5100D3EF9400EE9400400F7DC77C01DCFEDDE3
:081D6100FAEF1F70EB1E80E891
:011D69002257
:101BE400C2A07F467E00EF1FAC0670011E4C70F64B
:101BF400D2A0E4FEFF30A0110FBF00010ED3EF947A
:0B1C040088EE941340EF7F00227F0168
:011C0F0022B2
:0C1B0400121BE47F017E00121D517FCCFB
:101B1000E4FBFAC2A00535E53570020534EF1392F7
:101B2000A0753400753506E5351535AC34700215F1
:101B3000344C70F3D2A0EFC313FF0BBB00010AEBD0
:051B400064084A70CEAC
:011B4500227D
:101B46007D087C00C2A00FBF0000D2A00FBF00001E
:101B56000FBF0000A2A0E433C43333335480FBE943
:101B6600C3134BF97E007F04EF1FAA0670011E4ABD
:0D1B760070F6ED1D70011CED4C70C9AF0143
:011B8300223F
:0F1E0000121B047F44121B107F647E00021D51D1
:08000300121B047FBE021B105A
:101D9B00E4FFFE121E00120003121B468F33121BB0
:061DAB0046EFFEE533FFE8
:011DB100220F
:101AC100121D9B8E318F32C3E5316480948050109A
:101AD100E5321532700215316332FF6331FF800048
:101AE100AC31AD32EC120A29E4FBFA7980783D126F
:101AF100091E8F308E2F8D2E8C2DAF30AE2FAD2E37
:021B0100AC2D09
:011B030022BF
:0813C3008F308E2F8D2E8C2D32
:1013CB00E4F531F532F533F53478357C00FD7BFFF0
:1013DB007A1E7956FE7F07120DF5E4FFFE7DC87C61
:1013EB0042AB30AA2FA92EA82D12091EE4FBFAF945
:1013FB00783F12082D120A62AB07AA06C3EA648073
:10140B009480500774352532F8762DC3EB9410EA8F
:10141B00648094A7401D7C277D10AF03AE02120E93
:10142B00DAEF2430FF0532E5327002053114243532
:10143B00F8A607C3EB94E8EA64809483402A7C27E0
:10144B007D10AF03AE02120EDA7E037FE8CFCDCF55
:10145B00CECCCE120EDAEF2430FF0532E53270021D
:10146B000531142435F8A6077C037DE8AF03AE02E3
:10147B00120EDA7E007F64CFCDCFCECCCE120EDA39
:10148B00EF2430FF0532E53270020531142435F8B4
:10149B00A6070532E53270020531142435F8762E95
:1014AB007C007D64AF03AE02120EDA7E007F0ACFA2
:1014BB00CDCFCECCCE120EDAEF2430FF0532E53293
:1014CB0070020531142435F8A607AE02AF037C0079
:1014DB007D0A120EDAED2430FF0532E5327002057B
:1014EB0031142435F8A60774352532F8E4F6AF34F9
:1014FB0074352FF8E6FE743C2FF8A6060534E53458
:10150B0070020533FF2435F8E670E3743C2FF8E4E2
:06151B00F6FB7A00793CAA
:0115210022A7
:101CC300253032643A253032643A253032640032AA
:101CD30030253032642D253032642D2530326400B6
:041DDC00D282D2815C
:0E1DE000E4FFFE0FBF00010EEF640A4E70F527
:011DEE0022D2
:0B1E4100121DDCC282121DE0C28122D3
:0C1E2900C282D281121DE0D282021DE0B4
:0C1E3500C282D281121DE0C281D2822242
:061E5D00121DDCC281220F
:0E1E0F00121DDC308204C281C322C281D322A4
:021C8300AD07AB
:101C8500E4FCED30E703D38001C39282ED25E0FD4E
:0E1C9500D281121DE0C2810CBC08E7021E0FB6
:101CA300E4FDD282FCD281121DE0ED25E0FD3082FD
:0F1CB30003430501C281121DE00CBC08E8AF0518
:011CC20022FF
:101D6A00AB05AA07121E417FD0121C83AF02121CB8
:091D7A0083AF03121C83021E2931
:021C5E00AB07D2
:101C6000121E417FD0121C83AF03121C83121E412F
:101C70007FD1121C83121CA3AD07121E5D121E29F8
:021C8000AF05AE
:011C8200223F
:10184900E4FF121C5EA9077F01121C5EAA077F0232
:10185900121C5EAD07ED547FC4540F75F00AA47CC9
:10186900002DFF754100EF540FF542EA547FC4542F
:101879000F75F00AA4AD022DFFEF540FFDE9547F57
:10188900C4540F75F00AA4AB017A002BFFEA35F0B6
:10189900EF540F7546FF75471C7548C38541498547
:1018A900424A8C4B8D4C754D00F54E7B007A007980
:1018B9002D120FB07B007A00792D754808E4FD7F61
:0418C90046021A3287
:1018CD007F04121C5EA9077F05121C5EAA077F0606
:1018DD00121C5EAD07ED547FC4540F75F00AA47C45
:1018ED00002DFF754100EF540FF542EA547FC454AB
:1018FD000F75F00AA4AD022DFFEF540FFDE9547FD3
:10190D00C4540F75F00AA4AB017A002BFFEA35F031
:10191D00EF540F7546FF75471C7548D285414985B3
:10192D00424A8C4B8D4C754D00F54E7B007A0079FB
:10193D002D120FB07B007A00792D754808E4FDFF5C
:03194D00021A3249
:101A7B003E312E476561722061646A7573746D65C2
:101A8B006E740020312E476561722061646A757334
:101A9B00746D656E74003E322E446174652053651F
:101AAB007474696E670020322E446174652053652F
:061ABB007474696E6700FF
:1015E800E4F55FF560E560455F7BFF70067A1A7980
:1015F8007B80047A1A798E754808E4FD7F14121AE4
:1016080032E5606401455F7BFF70067A1A79A18034
:10161800047A1A79B17548087D017F14121A3220AC
:10162800B6217F027E00121D1E20B617E5601560E8
:101638007002155FC3E55F648094805006755F0093
:1016480075600120B7227F027E00121D1E20B71888
:101658000560E5607002055FD39401E55F648094DE
:10166800804005E4F55FF56020B5167F027E001224
:101678001D1E20B50CE55F7008E560147003121D8F
:101688000130B3030215ED7F027E00121D1E30B338
:07169800030215ED121D0114
:01169F002228
:10082600020ACEE86480F8E933E83360110460F028
:10083600ED33EC337009E8FCE9FDEAFEEBFF220438
:1008460060DED3EB9FEA9EE99DE8C2E78CF0C2F733
:1008560095F0400CE8CCF8E9CDF9EACEFAEBCFFBFF
:10086600120A9985D0F05804700320D5B3E80470B5
:10087600075002B2D5020AD892D5EC0460F7E4CC50
:10088600C0E0C398F8603B94186008400DD0E0FBC8
:10089600020AB0E4FBFAC9FC8028E830E406E4C9A1
:1008A600FBE4CAFCE830E305E4C9CACBFCE854071C
:1008B6006010F8C3E913F9EA13FAEB13FBEC13FC27
:1008C600D8F130F52FC3E49CFCEF9BFFEE9AFEEDCA
:1008D60099FDD0E0FBEF4E4D4C701222DB03020A6D
:1008E600D5EC2CFCEF33FFEE33FEED33FDED30E7B8
:1008F600EB020AB0EF2BFFEE3AFEED39FDD0E0FB3E
:1009060050130BBB0003020AD8ED13FDEE13FEEFE6
:0809160013FFEC13FC020AB010
:10091E00EC4D6011E8497017ED33EC3304600DE4D3
:10092E00FCFFFEFD22E933E8330470F8020ACE1212
:10093E000A9958046009E4CC248150062850090213
:10094E000AD8284003020AD5C0E0EB4A7044B980A9
:10095E0006D0E0FB020AC4EF4E701CBD8008EBFF10
:10096E00EAFEE9FD80EBE98DF0A4FEE5F0020A0750
:10097E00E9CDF9EAFEEBFFEF89F0A4FCE5F0CE89B4
:10098E00F0A42EFFE435F0CD89F0A42DFEE435F071
:10099E008067EF4E7005BD80D780C3EF8BF0A4AC9F
:1009AE00F0EE8BF0A42CFCE435F0F8EF8AF0A42CDA
:1009BE00E5F038FCE433CB8DF0A42CFCE5F03BF8ED
:1009CE00EE8AF0A42CFCE5F038F8E433CF89F0A4DD
:1009DE002CFCE5F038CF3400CE89F0A42FFFE5F0E3
:1009EE003EFEE433C98DF0A42EFEE5F039CD8AF03B
:1009FE00A42FFFE5F03EFEE43DFD33D0E0FB5007B3
:100A0E000BBB000F020AD8EC2CFCEF33FFEE33FECB
:060A1E00ED33FD020AB0F9
:100A240075F020800E75F010800575F0087D007E4D
:100A3400007F003392D530D503120F10EC334010F1
:100A4400EF33FFEE33FEED33FDEC33FCD5F0ED2256
:0E0A5400E5F0247EA2D513CC92E7CDCEFF2292
:100A6200EDD2E7CD33EC3392D524814006E4FFFE8C
:100A7200FDFC22FCE4CFCECDCC24E0501174FF80EB
:100A8200EDC3CC13CCCD13CDCE13CECF13CF047088
:070A9200F030D5DE020F1069
:100F5400E55A2446F8E6055A2278433007027846D3
:100F6400E475F001120F1E020E1B2000EB7F2ED23F
:100F7400008018EF540F2490D43440D4FF30040B75
:100F8400EF24BFB41A0050032461FFE55B6002152F
:100F94005B055EE55E7002055D30070D7843E47520
:100FA400F001120F1EEF020E61021C377403D20708
:100FB4008003E4C207F55A8B438A448945E4F55B10
:100FC400F55DF55EE55B60077F20120F8F80F57598
:100FD4005CFFC201C200C202C203C205C206C2084B
:100FE400120F5DFF700D3007057F00120FA0AF5E7A
:100FF400AE5D22B4255FC2D5C204120F5DFF24D0BA
:10100400B40A00501A75F00A785B30D50508B6FFAB
:101014000106C6A426F620D5047002D20380D92482
:10102400CFB41A00EF5004C2E5D20402128DD201EB
:1010340080C6D20080C0D20280BCD2D580BAD2058C
:1010440080B47F20120F8F2002077401B55B00402B
:10105400F1120F54FF120F8F020FC8D208D206806C
:1010640095120F54FB120F54FA120F54F94A4B7095
:101074000679847A137BFF20022EE55B602A7E00CA
:101084008E82758300120E3460060EEE655C70F07D
:10109400C2D5EBC0E0EAC0E0E9C0E0EE1212EDD048
:1010A400E0F9D0E0FAD0E0FB120E1BFF60AAEBC01F
:1010B400E0EAC0E0E9C0E0120F8FD0E02401F9D0EB
:1010C400E03400FAD0E0FBE55C0460DCD55CD98058
:1010D40087D20280A21212D060F7E55C700104127C
:1010E4000AE3A95C600DE55C600914F55C121377F2
:1010F400EF60F3EA30E702F404C3995077EAF42589
:101104005C0430E701E404F55C800D1212D060C188
:10111400EA055C255C120AE3EA7859F630E701E453
:10112400255C04D55C04200501141212EDE4C0E032
:101134001213777859E6601320E70714F6120F7735
:10114400802204F6D0E014C0E07F00120F77E55C43
:101154006007120F6E155C800B300503120F6ED002
:10116400E0020FC8D0E00480C51212D060A0E55C94
:1011740004120AE37859EAF6E55C200502600104EA
:0511840024041212ED2D
:1011890074FF04C0E0121377120F77E55C200502A3
:101199006003120F6ED0E0B55CE87F45120F8178CD
:1011A90059E67F2B30E7047F2DF404C0E0120F8F3E
:1011B900D0E075F00A84C0F0120F78D0E0120F78F1
:1011C900020FC8791080027908C206C2088008D2C5
:1011D900D5790A8004790AC2D5E55C047002F55C08
:1011E900E4FAFDFEFF120F54FC7B08200113120FD5
:1011F90054FD7B1030000A120F54FE120F54FF7B6E
:1012090020EC3382D592D55013C3E43000069FFFFA
:10121900E49EFEE42001039DFDE49CFCE4CBF8C2BE
:1012290001EC700CCFCECDCCE824F8F870F3801720
:10123900C3EF33FFEE33FEED33FDEC33FCEB33FB51
:10124900994002FB0FD8E9EB300105F8D0E0C4481A
:10125900B201C0E00AEC4D4E4F78207B0070C2EA23
:10126900B55C0040BCC0E01212EFD0F0D0E0200124
:1012790004C4C0E0C4B201C0F0120F78D0F0D5F0B8
:10128900EB020FC8120F2E10655311CC5810364CB3
:1012990010324211D04F11D84411D849104B431183
:1012A900DE55110F46116D4510D94713A450103A58
:1012B9002D103E2E10612B104223105F20138D2A12
:1012C9000FFA4800001059E55CB4FF03755C06127B
:1012D9000F54FC120F54FD120F54FE120F54FF78D5
:1012E90052020B12790AA2D5200314300509B9104C
:1012F900020404B9080104A2D52006025001042001
:1013090002689202B55B005034C0E07F20300319B7
:101319007F30A20272067205500F121346C202C232
:1013290006C205C2087F30800F300503E9C0E0120C
:101339000F8F300503D0E0F9D0E0B55BCC3005174D
:101349007F30B9100C120F8F7F583004077F7880D7
:1013590003B90803120F8F3002057F2D020F8F7F0B
:10136900202008F87F2B2006F322920280CF7F00ED
:10137900B4070050052452F8E6FF22286E756C6CFC
:101389002900D201120F543001F8C201785B30D51F
:101399000108F6020FFA2D50434958120F5424033D
:1013A900B405004001E490139F93120F80743A1220
:0A13B9000F80D203755B040211CC13
:100A9900E9D2E7C933E833F892D5EDD2E7CD33ECA3
:070AA90033FC5002B2D5221C
:100AB000EC30E7100FBF000C0EBE00080DBD0004A7
:100AC0000BEB6014A2D5EB13FCED92E7FD2274FF53
:100AD000FCFDFEFF22E480F8A2D574FF13FC7D80AC
:030AE000E480EFC0
:100AE300F920E72824F950037907E4F42402FB18DA
:100AF300DBFDE624FB5014E9600DE4F618E604F68A
:0F0B0300B40A08E4F6D9F57401F60A22C2D52225
:100B1200ED33EC3392D5FA602AB4FF33EDC2E77BB2
:100B2200FF60067A0B7937E4227A0B794020D504EC
:100B32007A0B793B224E614E002B494E46002D49DD
:100B42004E4600E47A08F608DAFC7B00740722E8D5
:100B5200C0E0ECC0E0EDC0E0EEC0E0EFC0E0EA755E
:100B6200F010A4CAABF075F04DA42BFBE435F0FCF9
:100B7200EA2410FAEB34C5FBEC34D9FCEDC2E7FFF2
:100B820075F056A4F42411C5F0F434C58FF0A42AEC
:100B9200E5F03BE43CF620E714120CE5D0E0FFD090
:100BA200E0FED0E0FDD0E0FC120C188014F4041238
:100BB2000CE5D0E0FFD0E0FED0E0FDD0E0FC120971
:100BC2001ED0E0F8E6FAEDD2E7CD33EC332482FB17
:100BD200E4C3CF33CFCE33CECD33CD33DBF37B077C
:100BE20075F00A846004F6081B0AE5F0F6088FF037
:100BF200740AA4FFACF08EF0740AA42CFEACF05080
:100C0200010C8DF0740AA42CFDE435F0F608DBDE4D
:030C120074072242
:100C1500020AD8EC5D046005E859047003020ACEA7
:100C2500120A99580460F6EC4860F2EC7004FDFE77
:100C3500FF22C860DB2481C85009C39860025006B2
:100C4500020AD59850CAF582E9294B4A7005AB824C
:100C5500020AC475F0007C1A7880C3EF9BEE9AED0A
:100C650099400DC3EF9BFFEE9AFEED99FDE842F02A
:100C7500DC23ACF0D0E0FFD0E0FED0E0FDAB82207D
:100C8500E7101BEB60BAEC2CFCEF33FFEE33FEED07
:100C950033FD020AB0E803F830E705C0F075F0004F
:100CA500EF2FFFEE33FEED33FD40B830E7C280AAEB
:100CB5003F8000004120000042C80000447A000047
:100CC500461C400047C35000497424004B189680C9
:100CD5004CBEBC205A0E1BCA6753C21C749DC5AEC0
:100CE500FB60065407601C2323120D13EB54386078
:100CF50009120CFF120D0E12091EECF8EDF9EEFAB1
:100D0500EFCB22EB120D0E80F1543803241C900C0E
:100D1500B5FE93FC0EEE93FD0EEE930ECE93FF22E1
:03000000021734B0
:0C173400787FE4F6D8FD75816102177B18
:100D2500E709F608DFFA8046E709F208DFFA803EB0
:100D350088828C83E709F0A3DFFA8032E309F6089D
:100D4500DFFA8078E309F208DFFA807088828C8305
:100D5500E309F0A3DFFA806489828A83E0A3F608B9
:100D6500DFFA805889828A83E0A3F208DFFA804C93
:100D750080D280FA80C680D4806980F2803380106A
:100D850080A680EA809A80A880DA80E280CA8033D3
:100D950089828A83ECFAE493A3C8C582C8CCC5834B
:100DA500CCF0A3C8C582C8CCC583CCDFE9DEE7801B
:100DB5000D89828A83E493A3F608DFF9ECFAA9F09A
:100DC500EDFB2289828A83ECFAE0A3C8C582C8CCF0
:100DD500C583CCF0A3C8C582C8CCC583CCDFEADE09
:100DE500E880DB89828A83E493A3F208DFF980CC6B
:100DF50088F0EF60010E4E60C388F0ED2402B40464
:100E05000050B9F582EB2402B4040050AF2323450A
:060E15008223900D7573AD
:100E1B00BB010689828A83E0225002E722BBFE02D5
:090E2B00E32289828A83E4932208
:100E3400BB010CE58229F582E5833AF583E0225073
:100E440006E92582F8E622BBFE06E92582F8E222BD
:0D0E5400E58229F582E5833AF583E49322D7
:100E6100BB010689828A83F0225002F722BBFE0170
:020E7100F3226A
:100E7300EF8DF0A4A8F0CF8CF0A428CE8DF0A42E93
:020E8300FE224D
:100E8500BC000BBE0029EF8DF084FFADF022E4CC51
:100E9500F875F008EF2FFFEE33FEEC33FCEE9DEC1A
:100EA500984005FCEE9DFE0FD5F0E9E4CEFD22ED60
:100EB500F8F5F0EE8420D21CFEADF075F008EF2FAA
:100EC500FFED33FD4007985006D5F0F222C398FD9B
:050ED5000FD5F0EA2238
:100EDA00C2D5EC30E709B2D5E4C39DFDE49CFCEE33
:100EEA0030E715B2D5E4C39FFFE49EFE120E85C318
:100EFA00E49DFDE49CFC8003120E8530D507C3E413
:060F0A009FFFE49EFE22A1
:0E0F1000C3E49FFFE49EFEE49DFDE49CFC22F2
:100F1E00FAE6FB0808E6F925F0F618E6CA3AF622D4
:100F2E00D083D082F8E4937012740193700DA3A352
:100F3E0093F8740193F5828883E473740293686066
:060F4E00EFA3A3A380DF66
:101C3700EFB40A07740D121C42740A309811A89960
:101C4700B8130CC2983098FDA899C298B811F6300D
:071C570099FDC299F59922E5
:10174000021950E493A3F8E493A34003F68001F256
:1017500008DFF48029E493A3F85407240CC8C333AA
:10176000C4540F4420C8834004F456800146F6DF79
:10177000E4800B0102040810204080901E63E47E88
:10178000019360BCA3FF543F30E509541FFEE4936E
:10179000A360010ECF54C025E060A840B8E493A335
:1017A000FAE493A3F8E493A3C8C582C8CAC583CA60
:1017B000F0A3C8C582C8CAC583CADFE9DEE780BE18
:011E6700007A
:00000001FF
