:101E7D004E6F7420726561647900426F696C696E92
:081E8D006720776174657200A3
:0C1E3200026E000002700000027200004E
:10177E00E4F526F5277528FF75291E752A7DD2807A
:10178E00E57545747005F52675271EE575640145EA
:10179E00747005F526752746E57564024574700567
:1017AE00F52675275A7BFF7A1E7987755508E4FD55
:1017BE007F14121C25121C6E8F2E8E2D8D2C8C2BB1
:1017CE0012161F8B288A29892A7555087D02E4FF77
:1017DE00121C25E57145706017AC76AD77EC120AD8
:1017EE008BAB2EAA2DA92CA82B120A195002C2803F
:1017FE00AC26AD27EC120A8BAB2EAA2DA92CA82B4A
:10180E00120A1960044002D28020B5277F027E00A2
:10181E00121E1820B51DB280E571457070047F014F
:10182E0080027F007570008F71E57145707004F550
:10183E0072F57320B40D7F027E00121E1820B403C1
:10184E00021DFBE57964014578700EE57145706007
:10185E00080573E57370020572E573642C7004E578
:10186E00726401600302178EF572F573F570F571EF
:05187E00D28002178E6C
:101EAD00121A17E4FF121E4BE4FF121D8FD280127F
:071EBD00177E12142580F8C6
:100003000000000000000000002F000000000700B7
:10001300070000147F147F1400242A7F2A12006231
:1000230064081323003649552250000005030000DD
:1000330000001C224100000041221C000014083E65
:1000430008140008083E0808000000A0600000082B
:10005300080808080000606000000020100804027F
:10006300003E5149453E0000427F4000004261513D
:100073004946002141454B31001814127F100027D7
:1000830045454539003C4A4949300001710905039A
:1000930000364949493600064949291E00003636CB
:1000A300000000005636000000081422410000142E
:1000B300141414140000412214080002015109060B
:1000C30000324959513E007C1211127C007F49498C
:1000D3004936003E41414122007F4141221C007FBD
:1000E30049494941007F09090901003E4149497ACB
:1000F300007F0808087F0000417F41000020404145
:100103003F01007F08142241007F40404040007FB0
:10011300020C027F007F0408107F003E4141413EF4
:10012300007F09090906003E4151215E007F09193C
:1001330029460046494949310001017F0101003F39
:100143004040403F001F2040201F003F4038403FB9
:10015300006314081463000708700807006151491D
:10016300454300007F41410000552A552A550000B0
:1001730041417F000004020102040040404040402E
:10018300000001020400002054545478007F4844C6
:10019300443800384444442000384444487F0038FD
:1001A3005454541800087E0901020018A4A4A47C26
:1001B300007F080404780000447D400000408084F0
:1001C3007D00007F102844000000417F4000007C38
:1001D30004180478007C0804047800384444443844
:1001E30000FC242424180018242418FC007C080490
:1001F300040800485454542000043F444020003C69
:100203004040207C001C2040201C003C4030403CEF
:10021300004428102844001CA0A0A07C004464547F
:100223004C441414141414140000000000000000C3
:100233000000000000000000000000F800000000C3
:10024300000000333000000000100C06100C060004
:10025300000000000000000040C07840C07840006B
:10026300043F04043F040400007088FC08300000CD
:10027300001820FF211E0000F008F000E018000025
:1002830000211C031E211E0000F0088870000000DE
:100293001E2123241927211010160E000000000030
:1002A3000000000000000000000000E0180402004D
:1002B300000000071820400000020418E0000000BE
:1002C3000040201807000000404080F080404000BC
:1002D3000202010F01020200000000F00000000012
:1002E3000101011F010101000000000000000000E6
:1002F30080B070000000000000000000000000005B
:1003030000010101010101010000000000000000E3
:10031300003030000000000000000000806018047E
:10032300006018060100000000E010080810E0005B
:10033300000F102020100F00001010F80000000024
:100343000020203F2020000000700808088870006B
:1003530000302824222130000030088888483000EB
:100363000018202020110E000000C02010F800000B
:1003730000070424243F240000F8088888080800A4
:100383000019212020110E0000E0108888180000B9
:10039300000F112020110E0000380808C83808008B
:1003A3000000003F0000000000708808088870000B
:1003B300001C222121221C0000E010080810E0008C
:1003C3000000312222110F00000000C0C000000015
:1003D300000000303000000000000080000000003A
:1003E3000000806000000000000080402010080032
:1003F30000010204081020004040404040404000FB
:1004030004040404040404000008102040800000D5
:100413000020100804020100007048080808F000DA
:100423000000003036010000C030C828E810E000AA
:100433000718272423140B000000C038E000000035
:10044300203C23020227382008F88888887000009F
:10045300203F202020110E00C03008080808380073
:10046300071820202010080008F808080810E000EA
:10047300203F202020100F0008F88888E80810008B
:10048300203F20202320180008F88888E80810005F
:10049300203F200003000000C03008080838000097
:1004A30007182020221E020008F808000008F80898
:1004B300203F210101213F20000808F8080800001F
:1004C3000020203F2020000000000808F808080052
:1004D300C08080807F00000008F888C028180800CA
:1004E300203F20012638200008F808000000000003
:1004F300203F20202020300008F8F800F8F80800FA
:10050300203F003F003F200008F830C00008F808F3
:10051300203F200007183F00E01008080810E00003
:100523000F10202020100F0008F808080808F0001A
:10053300203F210101010000E01008080810E0003D
:100543000F18242438504F0008F8888888887000D2
:10055300203F2000030C3020007088080808380072
:100563000038202121221C00180808F80808180068
:100573000000203F2000000008F808000008F808E9
:10058300001F202020201F000878880000C838089A
:10059300000007380E010000F80800F80008F80012
:1005A300033C0700073C03000818688080681808AC
:1005B30020302C03032C30200838C800C83808002A
:1005C3000000203F2000000010080808C838080079
:1005D3002038262120201800000000FE020202001D
:1005E3000000007F40404000000C30C000000000CD
:1005F300000000010638C00000020202FE000000F5
:10060300004040407F00000000000402020204009A
:1006130000000000000000000000000000000000D7
:1006230080808080808080800002020400000000BF
:1006330000000000000000000000808080800000B7
:100643000019242222223F2008F8008080000000A5
:10065300003F112020110E00000000808080000068
:10066300000E112020201100000000808088F80077
:10067300000E112020103F200000808080800000A9
:10068300001F222222221300008080F0888888180D
:100693000020203F20200000000080808080800018
:1006A300006B94949493600008F8008080800000AD
:1006B300203F210000203F20008098980000000088
:1006C3000020203F202000000000008098980000B8
:1006D30000C08080807F000008F8000080808000D8
:1006E300203F24022D302000000808F800000000FD
:1006F3000020203F202000008080808080808000B8
:10070300203F20003F20003F808000808080000049
:10071300203F210000203F200000808080800000D7
:10072300001F202020201F00808000808000000008
:1007330080FFA12020110E00000000808080800037
:10074300000E112020A0FF80808080008080800028
:1007530020203F2120000100000080808080800055
:100763000033242424241900008080E080800000CA
:100773000000001F20200000808000000080800017
:10078300001F202020103F20808080000080808078
:1007930000010E3008060100808000800080808008
:1007A3000F300C030C300F0000808000808080002D
:1007B3000020312E0E312000808080000080808058
:1007C30080818E7018060100008080808080800008
:1007D3000021302C2221300000000000807C020226
:1007E30000000000003F404000000000FF00000048
:1007F30000000000FF0000000002027C80000000F7
:100803000040403F00000000000601010202040412
:080813000000000000000000DD
:101E1800EF4E60157D087C07ED1DAA0470011C4A71
:091E280070F6EF1F70EA1E80E75E
:011E3100228E
:101E4B008F26E5267006FD7FA6121D3BE526B40105
:091E5B0007E4FD7FA7121D3B22E4
:101D8F008F26E526700DFD7FC8121D3BE4FD7FA158
:101D9F00121D3BE526B4010EE4FD7FC0121D3BE48E
:071DAF00FD7FA0121D3B2285
:0A1D3100121D3BE4FF121D3B7F1062
:101D3B00ED6004D2938002C293C294E4FEC290EF92
:101D4B0030E704D2918002C291D290EF25E0FF0ED2
:071D5B00BE08EAD294D29306
:011D6200225E
:101DDD00AC07ED24B0FFE4FD121D3BEC54F0C454F0
:0E1DED000F4410FF121D3BEC540FFF021D3B74
:101EDB00E4FD7F8D121D3B7F14121D3B7FAF021D56
:011EEB003BBB
:0C1EFB00E4FD7F8D121D367FAE021D3B02
:101DFB00E4FCEC24B0FFE4FD121D31E4FB7D01E4B7
:0C1E0B00FF121D3B0BBB80F50CBC08E671
:011E170022A8
:061951008F578D58A90319
:10195700E4F55BE55AC313F55CE4FBFAE55AB40812
:1019670008755D00755E06802CE55A131313541F26
:10197700FF7E00E55A54077C0060047D0180027DEC
:1019870000ED2FFFEC3EFEE55AC313FD7C00120E5F
:10199700D58E5D8F5EE924E0F55BAD58AF57121D1C
:1019A700DDE4FAFBC3EB955EEA955D5062E55CFD0D
:1019B7007C00AF03AE02120EE7ED4C700FE55A64E0
:1019C700086009AD580558AF57121DDDE55AB40830
:1019D7001075F006E55BA42403F582E5F03400807A
:1019E70013E55AB4102975F010E55BA4242BF58292
:1019F700E5F03402F583E5822BF582E5833AF5833A
:0F1A0700E493FF7D01121D3B0BBB00010A80958C
:011A160022AD
:041E95008F1CA905F0
:101E99007F017E00AD0119ED6009AD1C7C00120EB9
:031EA900D580F1F0
:011EAC002213
:081B37008F088D098A0A8B0B4F
:101B3F00E4F510F511E50DB40803751002E4F50E88
:101B4F00E50EC3950C5069C3E50C950E14FD7F0A85
:101B5F00121E95AC0AAD0BCFCDCFCECCCE120EE769
:101B6F007C007D0A120EE78D0FE5117025E50C1430
:101B7F00FFE50EC39F501BE50F7014E50DC3132532
:101B8F0010850EF0A42508FF850D5A7B208018754F
:101B9F001101E50DC3132510850EF0A42508FFE5EF
:101BAF000F2430FB850D5AAD09121951050E809087
:011BBF002203
:0A1C25008F508D518B528A53895461
:101C2F00E4F556AB52AA53A9548556827583001218
:101C3F000E96602AAF5605568F82758300120E9648
:101C4F00FB85555AAD51AF50121951E555B40804E3
:0E1C5F0074068004E555C3132550F55080C56A
:011C6D002254
:061BC0008F128D138B143F
:101BC600E4F519F51AE515131313541FFFE515541B
:101BD6000760047E0180027E00EF2EF515E4F51BFA
:101BE600E51BC395155037E51B2513FDAF12121DD6
:101BF600DDE4FCECC395145021AB16AA17A9180511
:101C06001AE51AAE197002051914F5828E83120EA2
:0E1C160096FF7D01121D3B0C80D9051B80C27C
:011C2400229D
:101A1700C2927FC87E00121E18D292E4FD7FAE12DA
:101A27001D317F40121D3B7F81121D3B7FCF121D51
:101A37003B7FA1121D3B7FC8121D3B7FA6121D3B9A
:101A47007FA8121D3B7F3F121D3B7FD3121D3BE436
:101A5700FF121D3B7FD5121D3B7F80121D3B7FD997
:101A6700121D3B7FF1121D3B7FDA121D3B7F1212C5
:101A77001D3B7FDB121D3B7F40121D3B7F20121D4C
:101A87003B7F02121D3B7F8D121D3B7F14121D3BB6
:101A97007FA4121D3B7FA6121D3B121DFBE4FD7F99
:041AA700AF021D3B32
:071F0F0000000000000000CB
:101E6400D3EF9400EE9400400F7DC77C01DCFEDDCF
:081E7400FAEF1F70EB1E80E87D
:011E7C002243
:101D6300C2A07F467E00EF1FAC0670011E4C70F6CA
:101D7300D2A0E4FEFF30A0110FBF00010ED3EF94F9
:0B1D830088EE941340EF7F00227F01E8
:011D8E002232
:0C1CB100121D637F017E00121E647FCCB8
:101CBD00E4FBFAC2A00537E53770020536EF139243
:101CCD00A0753600753706E5371537AC3670021539
:101CDD00364C70F3D2A0EFC313FF0BBB00010AEB20
:051CED0064084A70CEFE
:011CF20022CF
:101CF3007D087C00C2A00FBF0000D2A00FBF000070
:101D03000FBF0000A2A0E433C43333335480FBE994
:101D1300C3134BF97E007F04EF1FAA0670011E4A0E
:0D1D230070F6ED1D70011CED4C70C9AF0194
:011D30002290
:0F1EEC00121CB17F44121CBD7F647E00021E6475
:081F0700121CB17FBE021CBDDB
:101EC400E4FFFE121EEC121F07121CF38F35121CC6
:061ED400F3EFFEE535FF0F
:011EDA0022E5
:101C6E00121EC48E338F34C3E533648094805010BB
:101C7E00E5341534700215336334FF6333FF80008F
:101C8E00AC33AD34EC120A8BE4FBFA7980783D125A
:101C9E0009138F328E318D308C2FAF32AE31AD3085
:021CAE00AC2F59
:011CB0002211
:08161F008F328E318D308C2FCB
:10162700E4F533F534F535F53678377C00FD7BFF87
:101637007A1F790FFE7F07120E57E4FFFE7DC87CE5
:1016470042AB32AA31A930A82F120913E4FBFAF9E9
:10165700783F120822120AC4AB07AA06C3EA6480BD
:101667009480500774372534F8762DC3EB9410EA2D
:10167700648094A7401D7C277D10AF03AE02120F34
:101687003CEF2430FF0534E534700205331424376A
:10169700F8A607C3EB94E8EA64809483402A7C2782
:1016A7007D10AF03AE02120F3C7E037FE8CFCDCF94
:1016B700CECCCE120F3CEF2430FF0534E534700258
:1016C7000533142437F8A6077C037DE8AF03AE0281
:1016D700120F3C7E007F64CFCDCFCECCCE120F3C15
:1016E700EF2430FF0534E53470020533142437F84E
:1016F700A6070534E53470020533142437F8762E2F
:101707007C007D64AF03AE02120F3C7E007F0ACFE0
:10171700CDCFCECCCE120F3CEF2430FF0534E534CD
:1017270070020533142437F8A607AE02AF037C0016
:101737007D0A120F3CED2430FF0534E534700205B5
:1017470033142437F8A60774372534F8E4F6AF3690
:1017570074372FF8E6FE743E2FF8A6060536E536F1
:1017670070020535FF2437F8E670E3743E2FF8E47E
:06177700F6FB7A00793E4A
:01177D002249
:1018830053657474696E67003E6765617220310049
:1018930020676561722031003E6765617220320006
:1018A30020676561722032003E67656172203300F4
:1018B30020676561722033003E636F6E737420741A
:1018C300656D703A25640020636F6E7374207465D0
:1018D3006D703A2564003E74696D656420736875A4
:1018E30074646F776E3A204E4F003E74696D656481
:1018F3002073687574646F776E3A5945530020748A
:10190300696D65642073687574646F776E3A204EF1
:101913004F002074696D65642073687574646F7714
:101923006E3A59455300000000000000000000001B
:1019330000000000000000000000000000000000A4
:0E194300000000000000000000000000000096
:0C1E3E000276001B027800000274000015
:10142500E4F526F52778287C00FD7BFF7A197929D4
:10143500FE7F14120E57783C7C007D007BFF7A19E5
:10144500793D7E007F14120E577BFF7A18798375DC
:101455005508E4FD7F28121C25C3E5279403E526DE
:10146500648094805006852674852775E527452672
:101475007BFF70067A18798B80047A1879937555F5
:10148500087D01E4FF121C25E527640145267BFF45
:1014950070067A18799B80047A1879A37555087DAA
:1014A50002E4FF121C25E527640245267BFF700632
:1014B5007A1879AB80047A1879B37555087D03E4F9
:1014C500FF121C25E5276403452670127553FF7529
:1014D50054187555BB857656857757FB801175531E
:1014E500FF7554187555CA8576568577577B007AEA
:1014F5000079281210127B007A0079287555087D2D
:1015050004E4FF121C25E52764044526701FE579D0
:1015150045787BFF700B7A1879D97555087D05805C
:10152500297A1879ED7555087D05E4801DE579451D
:10153500787BFF700B7A1979017555087D05800A4E
:101545007A1979157555087D05E4FF121C2520B714
:101555001D7F027E00121E1820B7130527E5277090
:10156500020526640545267005F52675270420B66F
:10157500207F027E00121E1820B616E5271527705B
:10158500021526C3E526648094805005E4F526F50A
:101595002720B3347F027E00121E1820B32AE526C9
:1015A5007026E52724FC601B04701DE57715777010
:1015B500021576C3E57664809480500CE4F576F5E3
:1015C500778005E4F578F57920B4387F027E00123E
:1015D5001E1820B42EE526702AE52724FC601E047B
:1015E50070210577E57770020576D3945AE5766420
:1015F500809480400E75760075775A800675780060
:1016050075790130B50302145E7F027E00121E1843
:0916150030B50302145E121DFB46
:01161E0022A9
:10081B00020B30E86480F8E933E83360110460F0D0
:10082B00ED33EC337009E8FCE9FDEAFEEBFF220443
:10083B0060DED3EB9FEA9EE99DE8C2E78CF0C2F73E
:10084B0095F0400CE8CCF8E9CDF9EACEFAEBCFFB0A
:10085B00120AFB85D0F05804700320D5B3E804705E
:10086B00075002B2D5020B3A92D5EC0460F7E4CCF8
:10087B00C0E0C398F8603B94186008400DD0E0FBD3
:10088B00020B12E4FBFAC9FC8028E830E406E4C949
:10089B00FBE4CAFCE830E305E4C9CACBFCE8540727
:1008AB006010F8C3E913F9EA13FAEB13FBEC13FC32
:1008BB00D8F130F52FC3E49CFCEF9BFFEE9AFEEDD5
:1008CB0099FDD0E0FBEF4E4D4C701222DB03020B77
:1008DB0037EC2CFCEF33FFEE33FEED33FDED30E761
:1008EB00EB020B12EF2BFFEE3AFEED39FDD0E0FBE6
:1008FB0050130BBB0003020B3AED13FDEE13FEEF8F
:08090B0013FFEC13FC020B12B8
:10091300EC4D6011E8497017ED33EC3304600DE4DE
:10092300FCFFFEFD22E933E8330470F8020B3012BA
:100933000AFB58046009E4CC2481500628500902BC
:100943000B3A284003020B37C0E0EB4A7044B980EE
:1009530006D0E0FB020B26EF4E701CBD8008EBFFB8
:10096300EAFEE9FD80EBE98DF0A4FEE5F00209FC67
:10097300E9CDF9EAFEEBFFEF89F0A4FCE5F0CE89BF
:10098300F0A42EFFE435F0CD89F0A42DFEE435F07C
:100993008067EF4E7005BD80D780C3EF8BF0A4ACAA
:1009A300F0EE8BF0A42CFCE435F0F8EF8AF0A42CE5
:1009B300E5F038FCE433CB8DF0A42CFCE5F03BF8F8
:1009C300EE8AF0A42CFCE5F038F8E433CF89F0A4E8
:1009D3002CFCE5F038CF3400CE89F0A42FFFE5F0EE
:1009E3003EFEE433C98DF0A42EFEE5F039CD8AF046
:1009F300A42FFFE5F03EFEE43DFD33D0E0FB5007BE
:100A03000BBB000F020B3AEC2CFCEF33FFEE33FE73
:060A1300ED33FD020B12A1
:100A190074F8CC6480CCC86480C8F582046043C390
:100A2900EB9FF5F0EA9E42F0E99D42F0E89C45F023
:100A390060305018E5825FFFE582F42B5582FB5048
:100A4900210ABA001D09B90019088016E5825BFB65
:100A5900E582F42F5582FF50090EBE00050DBD0039
:100A6900010CC3EB9FF5F0EA9E42F0E99D42F0E8E4
:0D0A79009C45F06007CC4820E701B3EC225B
:100A860075F020800E75F010800575F0087D007EEB
:100A9600007F003392D530D503120F72EC3340102D
:100AA600EF33FFEE33FEED33FDEC33FCD5F0ED22F4
:0E0AB600E5F0247EA2D513CC92E7CDCEFF2230
:100AC400EDD2E7CD33EC3392D524814006E4FFFE2A
:100AD400FDFC22FCE4CFCECDCC24E0501174FF8089
:100AE400EDC3CC13CCCD13CDCE13CECF13CF047026
:070AF400F030D5DE020F72A5
:100FB600E5672453F8E60567227850300702785330
:100FC600E475F001120F80020E7D2000EB7F2ED219
:100FD600008018EF540F2490D43440D4FF30040B13
:100FE600EF24BFB41A0050032461FFE568600215C0
:100FF60068056BE56B7002056A30070D7850E4757D
:10100600F001120F80EF020EC3021DB67403D20761
:101016008003E4C207F5678B508A518952E4F5686C
:10102600F56AF56BE56860077F20120FF180F575AC
:1010360069FFC201C200C202C203C205C206C208DB
:10104600120FBFFF700D3007057F00121002AF6B45
:10105600AE6A22B4255FC2D5C204120FBFFF24D0E8
:10106600B40A00501A75F00A786830D50508B6FF3C
:101076000106C6A426F620D5047002D20380D92420
:10108600CFB41A00EF5004C2E5D2040212EFD20127
:1010960080C6D20080C0D20280BCD2D580BAD2052A
:1010A60080B47F20120FF12002077401B56800405A
:1010B600F1120FB6FF120FF102102AD208D20680E3
:1010C60095120FB6FB120FB6FA120FB6F94A4B700D
:1010D6000679E67A137BFF20022EE568602A7E00F9
:1010E6008E82758300120E9660060EEE656970F0AC
:1010F600C2D5EBC0E0EAC0E0E9C0E0EE12134FD083
:10110600E0F9D0E0FAD0E0FB120E7DFF60AAEBC05A
:10111600E0EAC0E0E9C0E0120FF1D0E02401F9D026
:10112600E03400FAD0E0FBE5690460DCD569D980DB
:1011360087D20280A212133260F7E56970010412A9
:101146000B45A969600DE569600914F5691213D9A3
:10115600EF60F3EA30E702F404C3995077EAF42526
:10116600690430E701E404F569800D12133260C1A9
:10117600EA05692569120B45EA7866F630E701E467
:10118600256904D569042005011412134FE4C0E053
:101196001213D97866E6601320E70714F6120FD902
:1011A600802204F6D0E014C0E07F00120FD9E56972
:1011B6006007120FD01569800B300503120FD0D0CF
:1011C600E002102AD0E00480C512133260A0E5695F
:1011D60004120B457866EAF6E5692005026001040B
:0511E600240412134F68
:1011EB0074FF04C0E01213D9120FD9E56920050270
:1011FB006003120FD0D0E0B569E87F45120FE3789A
:10120B0066E67F2B30E7047F2DF404C0E0120FF16C
:10121B00D0E075F00A84C0F0120FDAD0E0120FDACA
:10122B0002102A791080027908C206C2088008D2FF
:10123B00D5790A8004790AC2D5E569047002F5698B
:10124B00E4FAFDFEFF120FB6FC7B08200113120F10
:10125B00B6FD7B1030000A120FB6FE120FB6FF7BE5
:10126B0020EC3382D592D55013C3E43000069FFF98
:10127B00E49EFEE42001039DFDE49CFCE4CBF8C25C
:10128B0001EC700CCFCECDCCE824F8F870F38017BE
:10129B00C3EF33FFEE33FEED33FDEC33FCEB33FBEF
:1012AB00994002FB0FD8E9EB300105F8D0E0C448B8
:1012BB00B201C0E00AEC4D4E4F78207B0070C2EAC1
:1012CB00B5690040BCC0E0121351D0F0D0E0200152
:1012DB0004C4C0E0C4B201C0F0120FDAD0F0D5F0F4
:1012EB00EB02102A120F9010C753122E5810984C65
:1012FB0010944212324F123A44123A4910AD431233
:10130B00405511714611CF45113B47140650109CA7
:10131B002D10A02E10C32B10A42310C12013EF2AC5
:10132B00105C48000010BBE569B4FF037569061239
:10133B000FB6FC120FB6FD120FB6FE120FB6FF78EA
:10134B005F020B74790AA2D5200314300509B9107A
:10135B00020404B9080104A2D5200602500104209E
:10136B0002689202B568005034C0E07F2030031948
:10137B007F30A20272067205500F1213A8C202C26E
:10138B0006C205C2087F30800F300503E9C0E012AA
:10139B000FF1300503D0E0F9D0E0B568CC3005177C
:1013AB007F30B9100C120FF17F583004077F788013
:1013BB0003B90803120FF13002057F2D020FF17FE5
:1013CB00202008F87F2B2006F322920280CF7F008B
:1013DB00B407005005245FF8E6FF22286E756C6C8D
:1013EB002900D201120FB63001F8C201786830D54E
:1013FB000108F602105C2D50434958120FB6240316
:10140B00B405004001E490140193120FE2743A12F8
:0A141B000FE2D20375680402122EDE
:100AFB00E9D2E7C933E833F892D5EDD2E7CD33EC41
:070B0B0033FC5002B2D522B9
:100B1200EC30E7100FBF000C0EBE00080DBD000444
:100B22000BEB6014A2D5EB13FCED92E7FD2274FFF0
:100B3200FCFDFEFF22E480F8A2D574FF13FC7D8049
:030B4200E480EF5D
:100B4500F920E72824F950037907E4F42402FB1877
:100B5500DBFDE624FB5014E9600DE4F618E604F627
:0F0B6500B40A08E4F6D9F57401F60A22C2D522C3
:100B7400ED33EC3392D5FA602AB4FF33EDC2E77B50
:100B8400FF60067A0B7999E4227A0B79A220D504C6
:100B94007A0B799D224E614E002B494E46002D4919
:100BA4004E4600E47A08F608DAFC7B00740722E873
:100BB400C0E0ECC0E0EDC0E0EEC0E0EFC0E0EA75FC
:100BC400F010A4CAABF075F04DA42BFBE435F0FC97
:100BD400EA2410FAEB34C5FBEC34D9FCEDC2E7FF90
:100BE40075F056A4F42411C5F0F434C58FF0A42A8A
:100BF400E5F03BE43CF620E714120D47D0E0FFD0CB
:100C0400E0FED0E0FDD0E0FC120C7A8014F4041273
:100C14000D47D0E0FFD0E0FED0E0FDD0E0FC1209AB
:100C240013D0E0F8E6FAEDD2E7CD33EC332482FBBF
:100C3400E4C3CF33CFCE33CECD33CD33DBF37B0719
:100C440075F00A846004F6081B0AE5F0F6088FF0D4
:100C5400740AA4FFACF08EF0740AA42CFEACF0501D
:100C6400010C8DF0740AA42CFDE435F0F608DBDEEB
:030C7400740722E0
:100C7700020B3AEC5D046005E859047003020B307F
:100C8700120AFB580460F6EC4860F2EC7004FDFEB3
:100C9700FF22C860DB2481C85009C3986002500650
:100CA700020B379850CAF582E9294B4A7005AB8287
:100CB700020B2675F0007C1A7880C3EF9BEE9AED45
:100CC70099400DC3EF9BFFEE9AFEED99FDE842F0C8
:100CD700DC23ACF0D0E0FFD0E0FED0E0FDAB82201B
:100CE700E7101BEB60BAEC2CFCEF33FFEE33FEEDA5
:100CF70033FD020B12E803F830E705C0F075F0008A
:100D0700EF2FFFEE33FEED33FD40B830E7C280AA88
:100D17003F8000004120000042C80000447A0000E4
:100D2700461C400047C35000497424004B18968066
:100D37004CBEBC205A0E1BCA6753C21C749DC5AE5D
:100D4700FB60065407601C2323120D75EB543860B3
:100D570009120D61120D70120913ECF8EDF9EEFA94
:100D6700EFCB22EB120D7080F1543803241C900D49
:100D770017FE93FC0EEE93FD0EEE930ECE93FF221D
:03000000021AAB36
:0C1AAB00787FE4F6D8FD758179021AF20C
:100D8700E709F608DFFA8046E709F208DFFA803E4E
:100D970088828C83E709F0A3DFFA8032E309F6083B
:100DA700DFFA8078E309F208DFFA807088828C83A3
:100DB700E309F0A3DFFA806489828A83E0A3F60857
:100DC700DFFA805889828A83E0A3F208DFFA804C31
:100DD70080D280FA80C680D4806980F28033801008
:100DE70080A680EA809A80A880DA80E280CA803371
:100DF70089828A83ECFAE493A3C8C582C8CCC583E9
:100E0700CCF0A3C8C582C8CCC583CCDFE9DEE780B8
:100E17000D89828A83E493A3F608DFF9ECFAA9F037
:100E2700EDFB2289828A83ECFAE0A3C8C582C8CC8D
:100E3700C583CCF0A3C8C582C8CCC583CCDFEADEA6
:100E4700E880DB89828A83E493A3F208DFF980CC08
:100E570088F0EF60010E4E60C388F0ED2402B40401
:100E67000050B9F582EB2402B4040050AF232345A8
:060E77008223900DD773E9
:100E7D00BB010689828A83E0225002E722BBFE0273
:090E8D00E32289828A83E49322A6
:100E9600BB010CE58229F582E5833AF583E0225011
:100EA60006E92582F8E622BBFE06E92582F8E2225B
:0D0EB600E58229F582E5833AF583E4932275
:100EC300BB010689828A83F0225002F722BBFE010E
:020ED300F32208
:100ED500EF8DF0A4A8F0CF8CF0A428CE8DF0A42E31
:020EE500FE22EB
:100EE700BC000BBE0029EF8DF084FFADF022E4CCEF
:100EF700F875F008EF2FFFEE33FEEC33FCEE9DECB8
:100F0700984005FCEE9DFE0FD5F0E9E4CEFD22EDFD
:100F1700F8F5F0EE8420D21CFEADF075F008EF2F47
:100F2700FFED33FD4007985006D5F0F222C398FD38
:050F37000FD5F0EA22D5
:100F3C00C2D5EC30E709B2D5E4C39DFDE49CFCEED0
:100F4C0030E715B2D5E4C39FFFE49EFE120EE7C353
:100F5C00E49DFDE49CFC8003120EE730D507C3E44E
:060F6C009FFFE49EFE223F
:0E0F7200C3E49FFFE49EFEE49DFDE49CFC2290
:100F8000FAE6FB0808E6F925F0F618E6CA3AF62272
:100F9000D083D082F8E4937012740193700DA3A3F0
:100FA00093F8740193F5828883E473740293686004
:060FB000EFA3A3A380DF04
:101DB600EFB40A07740D121DC1740A309811A89960
:101DC600B8130CC2983098FDA899C298B811F6308D
:071DD60099FDC299F5992265
:101AB700021EADE493A3F8E493A34003F68001F27A
:101AC70008DFF48029E493A3F85407240CC8C33330
:101AD700C4540F4420C8834004F456800146F6DFFF
:101AE700E4800B0102040810204080901E32E47E3F
:101AF700019360BCA3FF543F30E509541FFEE493F4
:101B0700A360010ECF54C025E060A840B8E493A3BA
:101B1700FAE493A3F8E493A3C8C582C8CAC583CAE5
:101B2700F0A3C8C582C8CAC583CADFE9DEE780BE9D
:011E4A000097
:00000001FF
