:0A1308004E6F742072656164790075
:101159007508FF750913750A08120ECBE4FF121200
:101169006FE4FF1211F31210968F0E8E0D8D0C8CF9
:101179000B120CA68B088A09890A752C08E4FDFF55
:0C11890012104D7FE87E0312125580DA30
:100003000000000000000000002F000000000700B7
:10001300070000147F147F1400242A7F2A12006231
:1000230064081323003649552250000005030000DD
:1000330000001C224100000041221C000014083E65
:1000430008140008083E0808000000A0600000082B
:10005300080808080000606000000020100804027F
:10006300003E5149453E0000427F4000004261513D
:100073004946002141454B31001814127F100027D7
:1000830045454539003C4A4949300001710905039A
:1000930000364949493600064949291E00003636CB
:1000A300000000005636000000081422410000142E
:1000B300141414140000412214080002015109060B
:1000C30000324959513E007C1211127C007F49498C
:1000D3004936003E41414122007F4141221C007FBD
:1000E30049494941007F09090901003E4149497ACB
:1000F300007F0808087F0000417F41000020404145
:100103003F01007F08142241007F40404040007FB0
:10011300020C027F007F0408107F003E4141413EF4
:10012300007F09090906003E4151215E007F09193C
:1001330029460046494949310001017F0101003F39
:100143004040403F001F2040201F003F4038403FB9
:10015300006314081463000708700807006151491D
:10016300454300007F41410000552A552A550000B0
:1001730041417F000004020102040040404040402E
:10018300000001020400002054545478007F4844C6
:10019300443800384444442000384444487F0038FD
:1001A3005454541800087E0901020018A4A4A47C26
:1001B300007F080404780000447D400000408084F0
:1001C3007D00007F102844000000417F4000007C38
:1001D30004180478007C0804047800384444443844
:1001E30000FC242424180018242418FC007C080490
:1001F300040800485454542000043F444020003C69
:100203004040207C001C2040201C003C4030403CEF
:10021300004428102844001CA0A0A07C004464547F
:100223004C441414141414140000000000000000C3
:100233000000000000000000000000F800000000C3
:10024300000000333000000000100C06100C060004
:10025300000000000000000040C07840C07840006B
:10026300043F04043F040400007088FC08300000CD
:10027300001820FF211E0000F008F000E018000025
:1002830000211C031E211E0000F0088870000000DE
:100293001E2123241927211010160E000000000030
:1002A3000000000000000000000000E0180402004D
:1002B300000000071820400000020418E0000000BE
:1002C3000040201807000000404080F080404000BC
:1002D3000202010F01020200000000F00000000012
:1002E3000101011F010101000000000000000000E6
:1002F30080B070000000000000000000000000005B
:1003030000010101010101010000000000000000E3
:10031300003030000000000000000000806018047E
:10032300006018060100000000E010080810E0005B
:10033300000F102020100F00001010F80000000024
:100343000020203F2020000000700808088870006B
:1003530000302824222130000030088888483000EB
:100363000018202020110E000000C02010F800000B
:1003730000070424243F240000F8088888080800A4
:100383000019212020110E0000E0108888180000B9
:10039300000F112020110E0000380808C83808008B
:1003A3000000003F0000000000708808088870000B
:1003B300001C222121221C0000E010080810E0008C
:1003C3000000312222110F00000000C0C000000015
:1003D300000000303000000000000080000000003A
:1003E3000000806000000000000080402010080032
:1003F30000010204081020004040404040404000FB
:1004030004040404040404000008102040800000D5
:100413000020100804020100007048080808F000DA
:100423000000003036010000C030C828E810E000AA
:100433000718272423140B000000C038E000000035
:10044300203C23020227382008F88888887000009F
:10045300203F202020110E00C03008080808380073
:10046300071820202010080008F808080810E000EA
:10047300203F202020100F0008F88888E80810008B
:10048300203F20202320180008F88888E80810005F
:10049300203F200003000000C03008080838000097
:1004A30007182020221E020008F808000008F80898
:1004B300203F210101213F20000808F8080800001F
:1004C3000020203F2020000000000808F808080052
:1004D300C08080807F00000008F888C028180800CA
:1004E300203F20012638200008F808000000000003
:1004F300203F20202020300008F8F800F8F80800FA
:10050300203F003F003F200008F830C00008F808F3
:10051300203F200007183F00E01008080810E00003
:100523000F10202020100F0008F808080808F0001A
:10053300203F210101010000E01008080810E0003D
:100543000F18242438504F0008F8888888887000D2
:10055300203F2000030C3020007088080808380072
:100563000038202121221C00180808F80808180068
:100573000000203F2000000008F808000008F808E9
:10058300001F202020201F000878880000C838089A
:10059300000007380E010000F80800F80008F80012
:1005A300033C0700073C03000818688080681808AC
:1005B30020302C03032C30200838C800C83808002A
:1005C3000000203F2000000010080808C838080079
:1005D3002038262120201800000000FE020202001D
:1005E3000000007F40404000000C30C000000000CD
:1005F300000000010638C00000020202FE000000F5
:10060300004040407F00000000000402020204009A
:1006130000000000000000000000000000000000D7
:1006230080808080808080800002020400000000BF
:1006330000000000000000000000808080800000B7
:100643000019242222223F2008F8008080000000A5
:10065300003F112020110E00000000808080000068
:10066300000E112020201100000000808088F80077
:10067300000E112020103F200000808080800000A9
:10068300001F222222221300008080F0888888180D
:100693000020203F20200000000080808080800018
:1006A300006B94949493600008F8008080800000AD
:1006B300203F210000203F20008098980000000088
:1006C3000020203F202000000000008098980000B8
:1006D30000C08080807F000008F8000080808000D8
:1006E300203F24022D302000000808F800000000FD
:1006F3000020203F202000008080808080808000B8
:10070300203F20003F20003F808000808080000049
:10071300203F210000203F200000808080800000D7
:10072300001F202020201F00808000808000000008
:1007330080FFA12020110E00000000808080800037
:10074300000E112020A0FF80808080008080800028
:1007530020203F2120000100000080808080800055
:100763000033242424241900008080E080800000CA
:100773000000001F20200000808000000080800017
:10078300001F202020103F20808080000080808078
:1007930000010E3008060100808000800080808008
:1007A3000F300C030C300F0000808000808080002D
:1007B3000020312E0E312000808080000080808058
:1007C30080818E7018060100008080808080800008
:1007D3000021302C2221300000000000807C020226
:1007E30000000000003F404000000000FF00000048
:1007F30000000000FF0000000002027C80000000F7
:100803000040403F00000000000601010202040412
:080813000000000000000000DD
:10125500EF4E60157D087C07ED1DAA0470011C4A40
:0912650070F6EF1F70EA1E80E72D
:01126E00225D
:10126F008F27E5277006FD7FA612119FE527B40192
:09127F0007E4FD7FA712119F2274
:1011F3008F27E527700DFD7FC812119FE4FD7FA1A6
:1012030012119FE527B4010EE4FD7FC012119FE484
:07121300FD7FA012119F22D4
:0A11950012119FE4FF12119F7F105A
:10119F00ED6004D2938002C293C294E4FEC290EF3A
:1011AF0030E704D2918002C291D290EF25E0FF0E7A
:0711BF00BE08EAD294D293AE
:0111C6002206
:10121A00AC07ED24B0FFE4FD12119FEC54F0C45466
:0E122A000F4410FF12119FEC540FFF02119F92
:1012D000E4FD7F8D12119F7F1412119F7FAF0211C9
:0112E0009F6E
:0C12F000E4FD7F8D12119A7FAE02119F69
:10123800E4FCEC24B0FFE4FD121195E4FB7D01E42D
:0C124800FF12119F0BBB80F50CBC08E6E8
:011254002277
:060E05008F2E8D2FA903C2
:100E0B00E4F532E531C313F533E4FBFAE531B4080D
:100E1B0008753400753506802CE531131313541FF8
:100E2B00FF7E00E53154077C0060047D0180027D6C
:100E3B0000ED2FFFEC3EFEE531C313FD7C00120BE2
:100E4B00FB8E348F35E924E0F532AD2FAF2E121225
:100E5B001AE4FAFBC3EB9535EA95345062E533FDA2
:100E6B007C00AF03AE02120C0DED4C700FE531643C
:100E7B00086009AD2F052FAF2E12121AE531B408F9
:100E8B001075F006E532A42403F582E5F0340080FA
:100E9B0013E531B4102975F010E532A4242BF5823B
:100EAB00E5F03402F583E5822BF582E5833AF58391
:0F0EBB00E493FF7D0112119F0BBB00010A80958C
:010ECA002205
:0412A1008F51A905BB
:1012A5007F017E00AD0119ED6009AD517C00120B87
:0312B500FB80F1CA
:0112B8002213
:080F5F008F3D8D3E8A3F8B405F
:100F6700E4F545F546E542B40803754502E4F54363
:100F7700E543C395415069C3E541954314FD7F0A95
:100F87001212A1AC3FAD40CFCDCFCECCCE120C0DBF
:100F97007C007D0A120C0D8D44E5467025E5411451
:100FA700FFE543C39F501BE5447014E542C3132577
:100FB700458543F0A4253DFF8542317B2080187588
:100FC7004601E542C31325458543F0A4253DFFE5CA
:100FD700442430FB854231AD3E120E050543809017
:010FE70022E7
:0A104D008F278D288B298A2A892B12
:10105700E4F52DAB29AA2AA92B852D8275830012C9
:101067000BCE602AAF2D052D8F82758300120BCE14
:10107700FB852C31AD28AF27120E05E52CB40804EB
:0E10870074068004E52CC3132527F52780C5C9
:011095002238
:060FE8008F478D488B4984
:100FEE00E4F54EF54FE54A131313541FFFE54A542B
:100FFE000760047E0180027E00EF2EF54AE4F55074
:10100E00E550C3954A5037E5502548FDAF471212BB
:10101E001AE4FCECC395495021AB4BAA4CA94D05E3
:10102E004FE54FAE4E7002054E14F5828E83120BB5
:0E103E00CEFF7D0112119F0C80D9055080C29B
:01104C002281
:100ECB00C2927FC87E00121255D292E4FD7FAE1201
:100EDB0011957F4012119F7F8112119F7FCF1211AD
:100EEB009F7FA112119F7FC812119F7FA612119F86
:100EFB007FA812119F7F3F12119F7FD312119FE486
:100F0B00FF12119F7FD512119F7F8012119F7FD9E6
:100F1B0012119F7FF112119F7FDA12119F7F121214
:100F2B00119F7FDB12119F7F4012119F7F201211A7
:100F3B009F7F0212119F7F8D12119F7F1412119FA1
:100F4B007FA412119F7FA612119F121238E4FD7F0E
:040F5B00AF02119F31
:07131A0000000000000000CC
:10128800D3EF9400EE9400400F7DC77C01DCFEDDB7
:08129800FAEF1F70EB1E80E865
:0112A000222B
:1011C700C2A07F467E00EF1FAC0670011E4C70F672
:1011D700D2A0E4FEFF30A0110FBF00010ED3EF94A1
:0B11E70088EE941340EF7F00227F0190
:0111F20022DA
:0C10D9001211C77F017E001212887FCC2C
:1010E500E4FBFAC2A0052FE52F7002052EEF13923F
:1010F500A0752E00752F06E52F152FAC2E70021545
:101105002E4C70F3D2A0EFC313FF0BBB00010AEB0B
:0511150064084A70CEE1
:01111A0022B2
:10111B007D087C00C2A00FBF0000D2A00FBF000053
:10112B000FBF0000A2A0E433C43333335480FBE978
:10113B00C3134BF97E007F04EF1FAA0670011E4AF2
:0D114B0070F6ED1D70011CED4C70C9AF0178
:011158002274
:0F12E1001210D97F441210E57F647E000212883C
:081312001210D97FBE0210E5A4
:1012B900E4FFFE1212E112131212111B8F2D1211EB
:0612C9001BEFFEE52DFF06
:0112CF0022FC
:101096001212B98E2B8F2CC3E52B648094805010CE
:1010A600E52C152C7002152B632CFF632BFF80009B
:1010B600AC2BAD2CEC120A1EE4FBFA7980783D12BB
:1010C60009138F2A8E298D288C27AF2AAE29AD28A1
:0210D600AC2745
:0110D80022F5
:080CA6008F2A8E298D288C276E
:100CAE00E4F52BF52CF52DF52E782F7C00FD7BFF32
:100CBE007A13791AFE7F07120BA8E4FFFE7DC87C1B
:100CCE0042AB2AAA29A928A827120913E4FBFAF98C
:100CDE00783F120822120A57AB07AA06C3EA6480AD
:100CEE0094805007742F252CF8762DC3EB9410EAC0
:100CFE00648094A7401D7C277D10AF03AE02120CBA
:100D0E0062EF2430FF052CE52C7002052B14242FE6
:100D1E00F8A607C3EB94E8EA64809483402A7C2704
:100D2E007D10AF03AE02120C627E037FE8CFCDCFF3
:100D3E00CECCCE120C62EF2430FF052CE52C7002C7
:100D4E00052B14242FF8A6077C037DE8AF03AE0213
:100D5E00120C627E007F64CFCDCFCECCCE120C6251
:100D6E00EF2430FF052CE52C7002052B14242FF8F0
:100D7E00A607052CE52C7002052B14242FF8762ED1
:100D8E007C007D64AF03AE02120C627E007F0ACF40
:100D9E00CDCFCECCCE120C62EF2430FF052CE52C3D
:100DAE007002052B14242FF8A607AE02AF037C00A9
:100DBE007D0A120C62ED2430FF052CE52C70020525
:100DCE002B14242FF8A607742F252CF8E4F6AF2E3B
:100DDE00742F2FF8E6FE74362FF8A606052EE52E94
:100DEE007002052DFF242FF8E670E374362FF8E419
:060DFE00F6FB7A007936D5
:010E040022CB
:10081B00020AC3E86480F8E933E83360110460F03E
:10082B00ED33EC337009E8FCE9FDEAFEEBFF220443
:10083B0060DED3EB9FEA9EE99DE8C2E78CF0C2F73E
:10084B0095F0400CE8CCF8E9CDF9EACEFAEBCFFB0A
:10085B00120A8E85D0F05804700320D5B3E80470CB
:10086B00075002B2D5020ACD92D5EC0460F7E4CC66
:10087B00C0E0C398F8603B94186008400DD0E0FBD3
:10088B00020AA5E4FBFAC9FC8028E830E406E4C9B7
:10089B00FBE4CAFCE830E305E4C9CACBFCE8540727
:1008AB006010F8C3E913F9EA13FAEB13FBEC13FC32
:1008BB00D8F130F52FC3E49CFCEF9BFFEE9AFEEDD5
:1008CB0099FDD0E0FBEF4E4D4C701222DB03020A78
:1008DB00CAEC2CFCEF33FFEE33FEED33FDED30E7CE
:1008EB00EB020AA5EF2BFFEE3AFEED39FDD0E0FB54
:1008FB0050130BBB0003020ACDED13FDEE13FEEFFD
:08090B0013FFEC13FC020AA526
:10091300EC4D6011E8497017ED33EC3304600DE4DE
:10092300FCFFFEFD22E933E8330470F8020AC31228
:100933000A8E58046009E4CC248150062850090229
:100943000ACD284003020ACAC0E0EB4A7044B980CA
:1009530006D0E0FB020AB9EF4E701CBD8008EBFF26
:10096300EAFEE9FD80EBE98DF0A4FEE5F00209FC67
:10097300E9CDF9EAFEEBFFEF89F0A4FCE5F0CE89BF
:10098300F0A42EFFE435F0CD89F0A42DFEE435F07C
:100993008067EF4E7005BD80D780C3EF8BF0A4ACAA
:1009A300F0EE8BF0A42CFCE435F0F8EF8AF0A42CE5
:1009B300E5F038FCE433CB8DF0A42CFCE5F03BF8F8
:1009C300EE8AF0A42CFCE5F038F8E433CF89F0A4E8
:1009D3002CFCE5F038CF3400CE89F0A42FFFE5F0EE
:1009E3003EFEE433C98DF0A42EFEE5F039CD8AF046
:1009F300A42FFFE5F03EFEE43DFD33D0E0FB5007BE
:100A03000BBB000F020ACDEC2CFCEF33FFEE33FEE1
:060A1300ED33FD020AA50F
:100A190075F020800E75F010800575F0087D007E58
:100A2900007F003392D530D503120C98EC33401077
:100A3900EF33FFEE33FEED33FDEC33FCD5F0ED2261
:0E0A4900E5F0247EA2D513CC92E7CDCEFF229D
:100A5700EDD2E7CD33EC3392D524814006E4FFFE97
:100A6700FDFC22FCE4CFCECDCC24E0501174FF80F6
:100A7700EDC3CC13CCCD13CDCE13CECF13CF047093
:070A8700F030D5DE020C98EF
:100A8E00E9D2E7C933E833F892D5EDD2E7CD33ECAE
:070A9E0033FC5002B2D52227
:100AA500EC30E7100FBF000C0EBE00080DBD0004B2
:100AB5000BEB6014A2D5EB13FCED92E7FD2274FF5E
:100AC500FCFDFEFF22E480F8A2D574FF13FC7D80B7
:030AD500E480EFCB
:030000000212FCED
:0C12FC00787FE4F6D8FD7581510211598D
:100AD800E709F608DFFA8046E709F208DFFA803E00
:100AE80088828C83E709F0A3DFFA8032E309F608ED
:100AF800DFFA8078E309F208DFFA807088828C8355
:100B0800E309F0A3DFFA806489828A83E0A3F60808
:100B1800DFFA805889828A83E0A3F208DFFA804CE2
:100B280080D280FA80C680D4806980F280338010B9
:100B380080A680EA809A80A880DA80E280CA803322
:100B480089828A83ECFAE493A3C8C582C8CCC5839A
:100B5800CCF0A3C8C582C8CCC583CCDFE9DEE7806A
:100B68000D89828A83E493A3F608DFF9ECFAA9F0E9
:100B7800EDFB2289828A83ECFAE0A3C8C582C8CC3F
:100B8800C583CCF0A3C8C582C8CCC583CCDFEADE58
:100B9800E880DB89828A83E493A3F208DFF980CCBA
:100BA80088F0EF60010E4E60C388F0ED2402B404B3
:100BB8000050B9F582EB2402B4040050AF2323455A
:060BC8008223900B28734C
:100BCE00BB010CE58229F582E5833AF583E02250DC
:100BDE0006E92582F8E622BBFE06E92582F8E22226
:0D0BEE00E58229F582E5833AF583E4932240
:100BFB00EF8DF0A4A8F0CF8CF0A428CE8DF0A42E0E
:020C0B00FE22C7
:100C0D00BC000BBE0029EF8DF084FFADF022E4CCCB
:100C1D00F875F008EF2FFFEE33FEEC33FCEE9DEC94
:100C2D00984005FCEE9DFE0FD5F0E9E4CEFD22EDDA
:100C3D00F8F5F0EE8420D21CFEADF075F008EF2F24
:100C4D00FFED33FD4007985006D5F0F222C398FD15
:050C5D000FD5F0EA22B2
:100C6200C2D5EC30E709B2D5E4C39DFDE49CFCEEAD
:100C720030E715B2D5E4C39FFFE49EFE120C0DC30C
:100C8200E49DFDE49CFC8003120C0D30D507C3E407
:060C92009FFFE49EFE221C
:0E0C9800C3E49FFFE49EFEE49DFDE49CFC226D
:00000001FF
